S01800004D756C746973656E736F72426F6172642E737265637F
S21440000040350020E1094000DD094000DD094000A0
S214400010DD094000DD094000DD0940000000000029
S214400020000000000000000000000000DD09400065
S214400030DD09400000000000DD094000DD09400009
S214400040DD094000DD094000DD094000DD094000D3
S214400050DD094000DD094000DD094000DD094000C3
S214400060DD094000DD09400000000000DD094000D9
S214400070DD0940002D074000DD094000DD09400055
S214400080DD094000DD0940003D074000DD09400035
S214400090DD094000190C4000DD094000DD09400044
S2144000A0DD094000DD094000DD094000DD09400073
S2144000B0DD094000DD094000DD0940000000000089
S2144000C000000000000000000000000000000000EB
S2144000D000000000000000000000000000000000DB
S2144000E000000000000000000000000000000000CB
S2144000F0000000000000000000000000DD09400095
S214400100DD094000DD09400000000000000000005E
S214400110000000000000000000000000000000009A
S214400120000000000000000000000000000000008A
S214400130000000000000000000000000000000007A
S214400140000000000000000010B5054C237833B9CD
S214400150044B13B10448AFF300800123237010BD55
S214400160C404002000000000681040000C4B43B15F
S2144001700C480D4910B5AFF300800C48036823B90E
S21440018010BD0A48036833B97047094B002BF7D0B7
S214400190BDE810401847064B002BF5D0184700BF67
S2144001A00000000068104000C804002068104000AE
S2144001B00000000010B489014318022444504FF058
S2144001C0FF319962196A5A605DF8044B704789019D
S2144001D005234350704700EB81114A61704700EB9E
S2144001E081118A61704700EB8111CA617047000037
S2144001F010B5A2B01848194B98470020184B98479E
S214400200184CA0470028FCD0174B9847174A184B65
S2144002109A62184CA0470028FCD00020164B9847FE
S214400220164B984716480D4B9847164B1A68164B70
S2144002301344164A934201D922B010BD202300939E
S21440024002AB0F220E211248124CA047BDF84810B0
S2144002501148124B9847EFE7000E2707A50B4000C2
S214400260450840006908400089084000013F4D0E9F
S21440027000040E4095084000E1074000BD0A4000DB
S214400280000027078C000020C0D3BDF980C3C901F9
S214400290000A0E400100002010140E40C309400022
S2144002A070B54FF400448C4B5C600B208B4DA847D8
S2144002B00C20A8478A4B4FF400151D66C3F8905093
S2144002C05D655D62C3F880501A6F22F400121A67AB
S2144002D05A6F22F400125A674FF480001866C3F82B
S2144002E0900058655862C3F880001A6F22F4800266
S2144002F01A675A6F22F480025A674FF40021196633
S214400300C3F8901059655962C3F880101A6F22F4EA
S21440031000221A675A6F22F400225A674FF480125E
S2144003201A66C3F890205A655A62C3F880201E6F3A
S21440033026F480161E675E6F26F480165E675D6044
S214400340586059605A604FF000521A61C3F8A020B6
S2144003501A634FF080421A61C3F8A0201A63042241
S2144003605A61C3F8A0205A66C3F890205A655A626C
S214400370C3F880201A6F22F004021A675A6F22F0E0
S21440038004025A6702221A631A61C3F8A020554A2B
S2144003904FF4005111631161C2F8A0101463146148
S2144003A0C2F8A04003201066C2F890005065506224
S2144003B0C2F88000146F04431467546F24F003049B
S2144003C0546750604FF480501866C3F890005865E4
S2144003D05862C3F880001C6F24F480541C675C6F1E
S2144003E024F480545C6758601966C3F890105965C9
S2144003F05962C3F88010186F20F400501867586F81
S21440040020F40050586759604FF480411966C3F88D
S214400410901059655962C3F88010186F20F48040D8
S2144004201867586F20F48040586759604FF4006052
S2144004301866C3F8900058655862C3F88000196F74
S21440044021F400611967596F21F4006159675860BB
S2144004504FF480611166C2F8901051655162C2F83F
S2144004608010146F24F480641467546F24F48064FE
S214400470546751601066C2F8900050655062C2F8EA
S2144004808000146F24F400641467546F24F40064EE
S214400490546750601966C3F8901059655962C3F89E
S2144004A080101A6F0A431A675A6F22F480625A679E
S2144004B059604FF400721A66C3F890205A655A6223
S2144004C0C3F88020196F11431967596F21F40071E2
S2144004D059675A6070BD00BF50140E40A5084000D2
S2144004E0000E0E4000100E40544B1B78FF2B34D0AD
S2144004F000B583B0EFF31083B3FA83F35B0901933F
S21440050072B6BFF35F8F00224D4B1A7001994B4A6B
S21440051013780133137029B10122494B1A70BFF387
S2144005205F8F62B6474A904218D0474A904223D0DF
S214400530464A90422ED0464A904239D0454A90424A
S21440054044D0454A90424FD0444A90425AD0444ABA
S214400550904265D003B05DF804FBFEE70720414BB0
S21440056098470720404B9847002107203F4B984725
S21440057007203F4B9847EDE716203A4B9847072011
S214400580394B984700210720384B98470720384B6F
S2144005909847DFE71520334B98470720324B98475C
S2144005A000210720314B98470720314B9847D1E729
S2144005B014202C4B984707202B4B984700210720A8
S2144005C02A4B984707202A4B9847C3E71320254BCA
S2144005D098470620244B984700210620234B9847EF
S2144005E00620234B9847B5E70E201E4B984706201B
S2144005F01D4B9847002106201C4B984706201C4B55
S2144006009847A7E70920174B98470620164B984768
S21440061000210620154B98470620154B984799E72A
S2144006200820104B984706200F4B9847002106207D
S2144006300E4B984706200E4B98478BE70805002040
S2144006408800002000400340000004400080004036
S21440065000C00140008001400040024000000240CF
S21440066000C00040A508400049094000F908400085
S21440067035094000016070470B4619B10968816032
S2144006805B68C3601AB1136883615368C36170477F
S21440069021F0FE01C905C90D0162704721F4FE71C3
S2144006A021F001018905890D0162704710B51E4B86
S2144006B053F820402268536A13F0805F11D002231B
S2144006C0C2F8203123684FF0FF32DA6100232375E9
S2144006D0236913F0010F26D0636823B3204698475A
S2144006E010BD13F0006F13D00223C2F820312368E8
S2144006F04FF00062DA61236913F0020F03D0A3685B
S2144007000BB12046984723680122C3F8202110BD2C
S21440071013F0007F07D0236913F0040F03D0E3687B
S2144007200BB12046984710BDE004002008B50020D5
S214400730014B984708BD00BFAD06400008B50120F4
S214400740014B984708BD00BFAD06400070B5054652
S2144007500E461446016001230B601E4B994232D070
S2144007600D201D4B98471D4B1D6023781B0203F43C
S214400770FE4373606378002B0CBF00210221A378F0
S2144007800BB141F00401E3780BB141F00801237945
S2144007900BB141F0100163791B0203F47063A27938
S2144007A0120392B213430B43B3652389C3F30E037C
S2144007B0628943EA0243F36500206860A860E86007
S2144007C02861287570BD1220034B9847034B5D6027
S2144007D0CBE700BF00000340A5084000E00400202F
S2144007E0174A136B23F0700318431063936E13F08D
S2144007F0080F0AD14FF4006311498A6E12F0080FB1
S21440080003D1013BF9D1012070470D4A136B23F009
S214400810030343F002031363936E13F0080F0AD1E9
S2144008204FF4006306498A6E12F0080F05D1013B6B
S214400830F9D101207047002070470020704700BF64
S21440084000040E40012803D0054A064B1A60704744
S214400850044A936843F0254343F480139360F3E7D8
S214400860080000A510140E40054B5B6913F0800F7E
S2144008701DBF044B986EC0F3C0100020704700BFE9
S21440088010140E4000040E400022014B9A6270473E
S21440089000040E40024B986E00F00200704700BF06
S2144008A000040E4032281ED81F280CD8114B9A69D7
S2144008B001238340934318D0012303FA00F00D4BE5
S2144008C018610020704720380A4BD3F808210123CE
S2144008D0834093430BD0012303FA00F0054BC3F843
S2144008E0000100207047012070470020704700201C
S2144008F0704700BF00040E4041F004010C4B00F16D
S214400900100243F822109A6E4FF4807303FA00F0F8
S214400910024209D14FF4006305498A6E024205D16E
S214400920013BFAD1012070470020704700207047F5
S21440093000040E404FF4807303FA00F0014B186039
S214400940704700BF00040E404FF4807303FA00F077
S214400950014B5860704700BF00040E40436823F4C4
S214400960403343604368090401F440311943416011
S214400970704732B900EB8100036B23F00103036339
S214400980704700EB8100036B43F00103036370473D
S21440099032B900EB8100036B23F002030363704718
S2144009A000EB8100036B43F002030363704700EBE8
S2144009B081010B6B23F0F0030B630B6B1A430A6346
S2144009C07047C369490201F4F05141F0B44141F423
S2144009D0807123F4F0531943C1617047FEE700006D
S2144009E000B583B02A4B2B4A9A4210D02A4B284A4D
S2144009F09A420CD2013B9B1A23F003030433134460
S214400A00244951F8040B42F8040B9A42F9D1234B7F
S214400A10234A9A420AD2013B9B1A23F0030304332B
S214400A201344002142F8041B9342FBD11D4A22F096
S214400A307F011D4B9960EFF31083B3FA83F35B0994
S214400A40019372B6BFF35F8F0021184B197001985F
S214400A5017490B6843F470030B60BFF34F8FBFF327
S214400A606F8F28B10121114B1970BFF35F8F62B6AB
S214400A7002F16042B2F5203F04D20B4A936843F03D
S214400A80005393600B4B98470B4B9847FEE700BFCD
S214400A900000002068104000C40400203C050020F0
S214400AA0C40400200000400000ED00E08800002064
S214400AB088ED00E0D10E4000F90C4000314B1B6B36
S214400AC003F00303012B1DD083B1022B36D02D4BF0
S214400AD01B6B03F07003702B4BD02A4B1A6B2A49C2
S214400AE0C2F302120B68D3400B607047274B5B691A
S214400AF013F0800F14BF4FF400424FF4FA42224BDB
S214400B001A60E4E71F4B1B6A13F0807F03D0204A2D
S214400B101D4B1A60DBE71F4A1B4B1A60194B1B6ABA
S214400B2003F07003102B05D0202BD0D11A4A164B59
S214400B301A60CCE7194A144B1A60C8E7134B5B6936
S214400B4013F0800F14BF4FF400424FF4FA420E4B9E
S214400B501A600C4B1B6B03F00303022BB7D1094BF7
S214400B609A6A0949C2F30C420B6802FB03330B60D6
S214400B70ADE7054A13680A49A1FB03135B081360F7
S214400B80704700BF00040E408C00002010140E403A
S214400B90001BB70000127A0000366E010024F400F5
S214400BA0ABAAAAAA124B984211D9124B984213D913
S214400BB0114B984214D9114B984215D9104B984274
S214400BC094BF4FF004220F4A0F4B1A6070474FF005
S214400BD080620D4B1A6070470C4A0B4B1A60704788
S214400BE00B4A094B1A6070470A4A074B1A6070470F
S214400BF0FF2C3101FF596202FF869303FFB3C40402
S214400C00FFE0F50500050004000A0E400001000460
S214400C1000020004000300040022124BDA70124B5C
S214400C201B6913F4807F1CD000B583B00F4B1A6845
S214400C30536A13F0807FFBD052690D4B1A60094B04
S214400C40FC229A705A7099221A70009304230193DA
S214400C5000226946074B1868074B984703B05DF873
S214400C6004FB70470005002000840040E804002094
S214400C7004050020100500207906400000B585B028
S214400C8000238DF805308DF806308DF809308DF844
S214400C900A30ADF80E3012238DF804300D4B1B8809
S214400CA0ADF80C3001238DF808308DF8073001AAD6
S214400CB009490A480A4B98470A4B4FF40052C3F872
S214400CC08020C3F88021202183F80D131A6005B0D8
S214400CD05DF804FB9000002000C00240E8040020BD
S214400CE04D07400000E100E0024B1B6810221A60EE
S214400CF0704700BFE804002080B5574B9847574BD5
S214400D0098471920DFF8BCA1D0470320544B98479A
S214400D1000210320534B98470320534B9847534C8E
S214400D20534A02212046DFF8A091C8470025C4F860
S214400D30C4502022022120464E4B984720220221B2
S214400D402046DFF88881C0474122022120464A4F8C
S214400D50B84702212046494EB047494B4FF48032AF
S214400D601A66C3F890205A655A62C3F88020196FF5
S214400D7011431967596F21F4803159675A6018201A
S214400D80D047404A01212046C84740F6BE120121BE
S214400D902046C04740F6C31201212046B8470121ED
S214400DA02046B047384B98470126384B1E70BFF355
S214400DB05F8F62B6364B9847364B4FF40012C3F8F7
S214400DC08020C3F8802183F815531A60324F334B86
S214400DD03B60334B1E704FF0020883F801800322BD
S214400DE09A700422DA70A4F5004420462D4B9847AA
S214400DF0414620462C4B984704F58064C4F8008052
S214400E0080232360636823F001036360636843F0D4
S214400E101003636029462046244B98472A462946B5
S214400E202046234B9847324629462046214B984732
S214400E302A4629462046204B9847266040F2022103
S214400E4038681E4B98474FF4807138681C4B98475B
S214400E504FF480736361FEE7F1014000A102400059
S214400E6049094000F90840003509400000000140AB
S214400E700E9E2116D7014000E7014000CF014000FA
S214400E80000E0E4000C400097D0C40008800002083
S214400E90E90C400000E100E010050020008500401D
S214400EA000050020E9044000750640005D0940004A
S214400EB07309400091094000AF0940009D0640007C
S214400EC091064000A5084000B5014000DF01400003
S214400ED070B50F4E0F4D761BB61018BF002405D0C8
S214400EE0013455F8043B9847A642F9D10A4E0B4DBB
S214400EF0761B00F0A7F8B61018BF002406D00134C1
S214400F0055F8043B9847A642F9D170BD70BD00BF66
S214400F105010400050104000581040005010400004
S214400F20024B13B1024800F005B8704700000000BD
S214400F30410F4000002301461A46184600F01EB8EE
S214400F4038B50A4C0A4D641BA4100AD004F18043FD
S214400F50013B05EB8305013C55F804399847002CC6
S214400F60F9D1BDE8384000F077B800BF68104000BF
S214400F7064104000704700BF704700BF2DE9F8433B
S214400F802C4D0646286898460F469146FFF7F2FFD6
S214400F90294B1C68D4F84831002B3ED05A681F2A8B
S214400FA01CDC02F1010E76B103EB82010124C1F88C
S214400FB08890D3F8880194402043022EC3F88801D5
S214400FC0C1F8088123D00232C3F804E0286843F809
S214400FD02270FFF7D1FF0020BDE8F883174B0BB314
S214400FE04FF4C870AFF300800346D8B1D4F8482118
S214400FF00260002141600A46C4F848014FF0010EE5
S214401000C0F88811C0F88C11002EDCD0CCE7D3F89D
S2144010108C110C43C3F88C41D5E704F5A673C4F88D
S2144010204831BBE72868FFF7A7FF4FF0FF30BDE821
S214401030F88300BFC00400204010400000000000BD
S21440104098000020F8B500BFF8BC08BC9E46704724
S214401050210F40006D014000F8B500BFF8BC08BC49
S20C4010609E467047490140001E
S21440106830B482B0049D5BB31C46036843F48033B7
S2144010780360C9B241F0B441416083680193019B63
S21440108813F0010FF9D14DB1214604EB85030D4C01
S21440109854F8045F41F8045B9942F9D1D2B242F061
S2144010A8B442426083680193019B13F0010FF9D064
S2144010B8036823F480330360002002B030BC7047D6
S2144010C80220FAE7FCFF3F000160704782B04160AB
S2144010D883680193019B13F0010FF9D0019800F043
S2144010E80E0002B0704700BF0100000000127A00F0
S2144010F8DC0500000000000000000000840300201B
S214401108EC0300205404002000000000000000000B
S2144011180000000000000000000000000000000082
S2144011280000000000000000000000000000000072
S2144011380000000000000000000000000000000062
S2144011480000000000000000000000000000000052
S2144011580000000000000000000000000000000042
S2144011680000000000000000000000000000000032
S2144011780000000000000000000000000000000022
S2144011880000000000000000000000000000000012
S2144011980000000000000000000000000000000002
S2144011A801000000000000000E33CDAB34126DE69F
S2144011B8ECDE05000B000000000000000000000008
S2144011C800000000000000000000000000000000D2
S2144011D800000000000000000000000000000000C2
S2144011E800000000000000000000000000000000B2
S2144011F800000000000000000000000000000000A2
S208401528180500203D
S8044009E1D1
