:020000040040BA
:1000000018350020F1084000ED084000ED084000E0
:10001000ED084000ED084000ED0840000000000041
:10002000000000000000000000000000ED0840009B
:10003000ED08400000000000ED084000ED08400021
:10004000ED084000ED084000ED084000ED084000DC
:10005000ED084000ED084000ED084000ED084000CC
:10006000ED084000ED08400000000000ED084000F1
:10007000ED08400029064000ED084000ED08400072
:10008000ED084000ED08400039064000ED08400052
:10009000ED084000010C4000ED084000ED08400074
:1000A000ED084000ED084000ED084000ED0840007C
:1000B000ED084000ED084000ED08400000000000A1
:1000C0000000000000000000000000000000000030
:1000D0000000000000000000000000000000000020
:1000E0000000000000000000000000000000000010
:1000F000000000000000000000000000ED084000CB
:10010000ED084000ED084000000000000000000085
:1001100000000000000000000000000000000000DF
:1001200000000000000000000000000000000000CF
:1001300000000000000000000000000000000000BF
:10014000000000000000000010B5054C237833B912
:10015000044B13B10448AFF300800123237010BD9A
:10016000C004002000000000D00E4000084B10B575
:100170001BB108490848AFF300800848036803B979
:1001800010BD074B002BFBD0BDE81040184700BF47
:1001900000000000C4040020D00E4000D00E40003B
:1001A0000000000010B5A2B01848194B9847002075
:1001B000184B9847184CA0470028FCD0174B98477D
:1001C000174A184B9A62184CA0470028FCD0002010
:1001D000164B9847164B984716480D4B9847164BA9
:1001E0001A68164B1344164A93420CD820230093E6
:1001F00002AB0F220E211348134CA047BDF8481044
:100200001248134B984722B010BD00BF000E2707BD
:10021000C90A4000450740006907400089074000BF
:10022000013F4D0E00040E4095074000DD064000E2
:10023000E1094000000027078C000020C0D3BDF971
:1002400080C3C901000A0E400100002010140E40B6
:10025000D108400038B54FF40044584B5C600B2087
:10026000574DA8470C20A847564B4FF000521A6133
:10027000C3F8A0201A634FF080421A61C3F8A0208F
:100280001A6304225A61C3F8A0205A66C3F890206A
:100290005A655A62C3F880201A6F22F004021A6766
:1002A0005A6F22F004025A6702221A631A61C3F8D5
:1002B000A02045494FF400520A630A61C1F8A0200A
:1002C0000C630C61C1F8A0404FF0C0511966C3F82F
:1002D000901059655962C3F88010186F0843186769
:1002E000586F20F0C050586759604FF4805119661C
:1002F000C3F8901059655962C3F88010186F20F444
:1003000080501867586F20F48050586759601A66FB
:10031000C3F890205A655A62C3F88020196F21F4FF
:1003200000511967596F21F4005159675A604FF411
:1003300080421A66C3F890205A655A62C3F880203A
:10034000196F21F480411967596F21F48041596771
:100350005A604FF400621A66C3F890205A655A62D8
:10036000C3F88020196F21F400611967596F21F4D7
:10037000006159675A604FF480621A66C3F8902092
:100380005A655A62C3F88020196F11431967596F73
:1003900021F4806159675A604FF400721A66C3F8FD
:1003A00090205A655A62C3F88020196F114319676B
:1003B000596F21F4007159675A6038BD50140E40CE
:1003C000A5074000000E0E4000100E40544B1B7855
:1003D000FF2B00D1FEE700B583B0EFF31083B3FA33
:1003E00083F35B09019372B6BFF35F8F00224D4B1D
:1003F0001A7001994A4A13780133137029B1012206
:10040000484B1A70BFF35F8F62B6474A90420DD1D6
:100410000720464B98470720454B98470021072067
:10042000444B98470720444B984775E0434A904215
:100430000DD116203D4B984707203D4B9847002192
:1004400007203C4B984707203B4B984764E03C4AC9
:1004500090420DD11520354B98470720344B9847D3
:1004600000210720334B98470720334B984753E030
:10047000344A90420DD114202C4B984707202C4B26
:100480009847002107202B4B984707202A4B984775
:1004900042E02D4A90420DD11320244B984706206C
:1004A000234B984700210620224B98470620224BD9
:1004B000984731E0254A90420DD10E201B4B9847BA
:1004C00006201B4B9847002106201A4B9847062010
:1004D000194B984720E01E4A90420DD10920134B3A
:1004E00098470620124B984700210620114B984749
:1004F0000620114B98470FE0164A90420CD1082075
:100500000A4B984706200A4B984700210620094BC2
:1005100098470620084B984703B05DF804FB00BFDE
:10052000040500208800002000400340A50740008B
:1005300051084000F90740003D0840000000044019
:100540000080004000C001400080014000400240A7
:100550000000024000C00040016070470B4619B126
:10056000096881605B68C3601AB11368836153686E
:10057000C36170470B4619B1096801605B6843604D
:100580001AB11368036153684361704721F0FE019B
:10059000C905C90D0162704721F4FE7121F0010106
:1005A0008905890D0162704710B51E4B53F8204034
:1005B0002268536A13F0805F11D00223C2F8203101
:1005C00023684FF0FF32DA6100232375236913F0AB
:1005D000010F26D0636823B32046984710BD13F05F
:1005E000006F13D00223C2F8203123684FF000625D
:1005F000DA61236913F0020F03D0A3680BB1204620
:10060000984723680122C3F8202110BD13F0007F12
:1006100007D0236913F0040F03D0E3680BB1204621
:10062000984710BDDC04002008B50020014B984716
:1006300008BD00BFA905400008B50120014B98473F
:1006400008BD00BFA905400070B505460E4614461A
:10065000016001230B601E4B994205D112201D4BF6
:1006600098471D4B5D6004E00D201A4B98471A4BCC
:100670001D6023781B0203F4FE4373606378002B34
:100680000CBF00210221A3780BB141F00401E378F3
:100690000BB141F0080123790BB141F010016379EE
:1006A0001B0203F47063A279120392B213430B434B
:1006B000B3652389C3F30E03628943EA0243F365FA
:1006C00000206860A860E8602861287570BD00BFE0
:1006D00000000340A5074000DC040020184A136B0B
:1006E00023F0700318431063936E13F0080F03D0C8
:1006F00009E0013B03D11EE04FF4006310498A6E0C
:1007000012F0080FF5D00E4A136B23F0030343F0E9
:1007100002031363906E10F0080004D000207047AD
:10072000013B03D109E04FF4006305498A6E12F0E2
:10073000080FF5D07047012070470120704700BFB7
:1007400000040E40012806D1054A936843F0254372
:1007500043F480139360034A014B1A60704700BF53
:1007600010140E40080000A5054B5B6913F0800FC4
:100770001DBF044B986EC0F3C0100020704700BF2F
:1007800010140E4000040E400022014B9A62704784
:1007900000040E40024B986E00F00200704700BF4C
:1007A00000040E4032281ED81F280CD8114B9A691D
:1007B00001238340934318D0012303FA00F00D4B2B
:1007C00018610020704720380A4BD3F80821012314
:1007D000834093430BD0012303FA00F0054BC3F889
:1007E0000001002070470120704700207047002062
:1007F000704700BF00040E4041F004010E4B00F1B1
:10080000100243F822109B6E4FF48071814013EA6E
:10081000010004D000207047013B04D107E010B470
:100820004FF40063044CA26E0A42F5D000E00120B0
:100830005DF8044B704700BF00040E404FF4807316
:1008400003FA00F0014B1860704700BF00040E402F
:100850004FF4807303FA00F0014B5860704700BFFB
:1008600000040E40436823F44033436043680904A6
:1008700001F440310B434360704700BF32B100EBDD
:100880008100036B43F001030363704700EB8100B9
:10089000036B23F001030363704700BF32B100EB29
:1008A0008100036B43F002030363704700EB810098
:1008B000036B23F002030363704700BF00EB810169
:1008C0000B6B23F0F0030B630B6B1A430A63704747
:1008D000C269490201F4F05122F4F05242F0B443EB
:1008E00043F480730B43C361704700BFFEE700BF52
:1008F00000B583B02C4B2D4A9A4203D02C4B2A4A88
:100900009A4204D32B4B2C4A9A420FD31AE0264921
:100910002A4B5B1A23F003030433244A134452F88E
:10092000040B41F8040B9A42F9D1EBE7244B254A1A
:10093000D21A22F003021A44043B002143F8041B9C
:100940009342FBD1204A22F07F01204B9960EFF3C4
:100950001083B3FA83F35B09019372B6BFF35F8F21
:1009600000211B4B197001981A490B6843F470035E
:100970000B60BFF34F8FBFF36F8F28B10121144B72
:100980001970BFF35F8F62B602F16042B2F5203F8B
:1009900004D20E4A936843F0005393600E4B98477D
:1009A0000E4B9847FEE700BF00000020D00E40002D
:1009B000C004002014050020C0040020BF04002053
:1009C000C4040020170500200000400000ED00E0F6
:1009D0008800002088ED00E0690D4000450C4000D3
:1009E000314B1B6B03F00303012B0FD013B1022B10
:1009F00029D042E02D4B5B6913F0800F14BF4FF4F8
:100A000000424FF4FA422A4B1A6036E0264B1B6A2A
:100A100013F0807F03D0274A254B1A602DE0264A29
:100A2000234B1A60204B1B6A03F07003102B02D07B
:100A3000202B04D021E0214A1D4B1A601DE0204AE2
:100A40001B4B1A6019E0194B5B6913F0800F14BF40
:100A50004FF400424FF4FA42154B1A60124B1B6BD5
:100A600003F00303022B08D10F4B9B6A1049C3F319
:100A70000C420B6802FB03330B600B4B1B6B03F048
:100A80007003702B07D10A4A13680E49A1FB0313A8
:100A90005B0813607047044B1B6B0549C3F30212DC
:100AA0000B68D3400B60704700040E4010140E40DA
:100AB0008C000020001BB70000127A000024F40014
:100AC00000366E01ABAAAAAA124B984204D84FF086
:100AD0008062114B1A607047104B984203D8104A3D
:100AE0000D4B1A6070470F4B984203D80E4A0A4BC1
:100AF0001A6070470D4B984203D80D4A064B1A6096
:100B000070470C4B984294BF4FF004220A4A024BA4
:100B10001A607047FF2C3101000A0E40FF59620233
:100B200000010004FF86930300020004FFB3C40425
:100B300000030004FFE0F5050005000470B582B075
:100B400006460D46009201930B4C00226946206830
:100B50000A4B984700960195002269462068084B89
:100B600098474FF480712068064B98474FF4807285
:100B7000054B5A6102B070BD0C05002075054000A0
:100B80005D0540008D0540000084004000B585B043
:100B900000238DF805308DF806308DF807308DF87C
:100BA00009308DF80A300122ADF80C20ADF80E3076
:100BB00012238DF804308DF8082001AA084909484D
:100BC000094B9847094B4FF40052C3F88020C3F8F3
:100BD0008021202183F80D131A6005B05DF804FB15
:100BE00000C00240E80400204906400000E100E0A7
:100BF000024B1B6810221A60704700BFE8040020F7
:100C00000B4AB2F900300B49181208704B70013BC7
:100C10001380094B1B6913F4807F07D010B50223A2
:100C2000064A19460348064CA04710BD704700BF4E
:100C3000900000200005002000840040E404002013
:100C40003D0B40002DE9F843324B9847324B984713
:100C5000324B4FF40012C3F88020C3F880210025E6
:100C600083F815531A60DFF8FC902D4BC9F800305B
:100C70002C4F3D7001267E702B4C20462B4B984705
:100C8000022120462A4B984704F580644FF0020861
:100C9000C4F8008080232360636823F0010363604D
:100CA000636843F01003636029462046214B984750
:100CB0002A4629462046204B984732462946204658
:100CC0001E4B98472A46294620461D4B98472660CA
:100CD00040F20221D9F800001A4B984743461A4ABD
:100CE00041463846194CA047194B9847194B1E707E
:100CF000BFF35F8F62B6184B9847184A4FF0804198
:100D0000D36B13F0804F14BF51631163144B013B3D
:100D1000FDD1F5E7A50140005502400000E100E0EB
:100D2000008500400005002000800040CD03400009
:100D300059054000650840007D0840009D084000BE
:100D4000BD08400099054000E40400203D0B400030
:100D50008D0B400088000020F10B4000000E0E407B
:100D6000001BB7000C05002070B50F4E0F4D761B11
:100D7000B61018BF002405D0013455F8043B98473D
:100D8000A642F9D10A4E0B4D761B00F08FF8B61033
:100D900018BF002406D0013455F8043B9847A642FA
:100DA000F9D170BD70BD00BFB80E4000B80E400054
:100DB000C00E4000B80E4000024B13B1024800F0D4
:100DC00005B8704700000000D90D4000002301461F
:100DD0001A46184600F014B838B5074D074C2C1BBE
:100DE000A41005D0013C55F8043D9847002CF9D1DA
:100DF000BDE8384000F064B8D00E4000CC0E400092
:100E00002DE9F047254C2568D5F848410646884627
:100E100092469946C4B360681F2817DC431C76B11C
:100E200004EB80050122C5F888A0D4F8881182401F
:100E30001143022EC4F88811C5F808911ED0023063
:100E4000636044F820800020BDE8F087144B03B3B2
:100E50004FF4C870AFF300800446D0B1D5F84831E4
:100E6000002780E88800C5F8484138460123C4F8C7
:100E70008871C4F88C71002EE1D0D1E7D4F88C11C0
:100E80000A43C4F88C21DAE705F5A674C5F8484191
:100E9000C1E74FF0FF30BDE8F08700BFA80E40006B
:100EA000000000004300000098000020F8B500BFDB
:100EB000F8BC08BC9E467047B90D40006D0140006B
:100EC000F8B500BFF8BC08BC9E4670474901400019
:100ED00070B483B0069E43B31C46036843F480336A
:100EE0000360C9B241F0B441416083680193019B42
:100EF00013F00103F9D14EB1214604EB86060D4CE7
:100F000054F8045F41F8045BB142F9D1D2B242F027
:100F1000B442426082680192019A12F0010FF9D046
:100F2000026822F48032026000E00223184603B017
:100F300070BC7047FCFF3F000160704782B04160A9
:100F400083680193019B13F0010FF9D0019800F021
:100F50000E0002B0704700BF0100000000127A00CE
:100F6000FF7F00000000000000000000840300205C
:100F7000EC030020540400200000000000000000EA
:100F80000000000000000000000000000000000061
:100F9000000000000000000000000000A40E40005F
:100FA0000000000000000000000000000000000041
:100FB0000000000000000000000000000000000031
:100FC0000000000000000000000000000000000021
:100FD0000000000000000000000000000000000011
:100FE0000000000000000000000000000000000001
:100FF00000000000000000000000000000000000F1
:1010000000000000000000000000000000000000E0
:1010100001000000000000000E33CDAB34126DE67D
:10102000ECDE05000B0000000000000000000000E6
:1010300000000000000000000000000000000000B0
:1010400000000000000000000000000000000000A0
:101050000000000000000000000000000000000090
:101060000000000000000000000000000000000080
:04000005004008F1BE
:00000001FF
